:060000000A128A110E280D
:10000800FE00030E83120313D9000A08DA000A124D
:100018008A11002B0A128A11112883134C30FD0013
:100028000230FE00AC30FF00203084000A128A1132
:100038002C230A128A11CC01CD01CE01CF01D001A7
:10004800D101D201D301D401D501D60183010A120D
:100058008A112E280A128A1179220A128A11053069
:100068000A128A1172210A128A1101300A128A119F
:100078009D200A128A11263083120313DB000030F8
:10008800DC002030E1006108DD000A128A11D82264
:100098000A128A1154289F185228532854289F144A
:1000A800831203134E084F0403195B285C284F285A
:1000B80031305606031D6128622882285508303ED3
:1000C800E1006108C8005408303EE1006108C7003B
:1000D8005208303EE1006108C6000430DB00003001
:1000E800DC004630E1006108DD000A128A11D822DE
:1000F8000A128A1183120313CE01CF013230560639
:10010800031D872888289A280230DB000030DC008D
:100118004A30E1006108DD000A128A11D8220A1269
:100128008A1183120313CE01CF013F280A128A11C4
:100138000E2883120313DD001F083F3940389F0043
:10014800831603131F129F12E028C3309F05FB2854
:10015800C3309F051F08C33904389F00FB28C330EC
:100168009F051F08C33904389F001F08C339083882
:100178009F00FB28C3309F051F08C33904389F0020
:100188001F08C33908389F001F08C3390C389F005F
:10019800FB28C3309F051F08C33904389F001F0878
:1001A800C33908389F001F08C3390C389F001F083F
:1001B800C33910389F00FB28831203135D08DB0046
:1001C800DC015C08003A0319EA28FB285B08013ABD
:1001D8000319A928033A0319AC28013A0319B328CB
:1001E800073A0319BE28013A0319CD28FB28C33062
:1001F8009F05831603139F13831203131F140230E2
:1002080083120313DB00DB0B072900000800F6014B
:10021800F11F0F2910291729F009F109F00A03190C
:10022800F10AF601F60AF31F1A291B292429F209F3
:10023800F309F20A0319F30A0130F4007408F60608
:10024800F701F8017008710403192B292C29632977
:10025800F501F50A3A2901300310F00DF10DFF3EC2
:10026800031D30290130F4007408F507F11F3D29FA
:100278003E292F2901300310F70DF80DFF3E031D0D
:100288003F2971087302031D4B2970087202031C71
:100298004E294F2956297008F2027108031CF303EE
:1002A800F302771401300310F10CF00CFF3E031D2C
:1002B80057290130F502031D622963293E29760872
:1002C8000319672968296D29F709F809F70A031935
:1002D800F80A7808F1007708F00008008312031381
:1002E800DD00AA298F30831603138F05CC298316C6
:1002F80003130F088F3910388F00CC298316031386
:100308000F088F3920388F00CC29831603130F0864
:100318008F3930388F00CC29831603130F088F3993
:1003280040388F00CC29831603130F088F395038B3
:100338008F00CC29831603130F088F3960388F007C
:10034800CC297030831603138F04CC295D08DB0099
:10035800DC015C08003A0319B229CC295B08013A90
:1003680003197629033A03197B29013A03198229CB
:10037800073A03198929013A03199029033A0319FD
:100388009729013A03199E290F3A0319A529CC295F
:10039800831603130F140800F601F31FD429D52977
:1003A800DC29F209F309F20A0319F30AF601F60A3D
:1003B800F11FDF29E029E529F009F109F00A0319FD
:1003C800F10A700871040319EA29EB291A2AF501C0
:1003D800F50AF92901300310F00DF10DFF3E031D58
:1003E800EF290130F4007408F507F11FFC29FD29F5
:1003F800EE2971087302031D032A70087202031C98
:10040800062A072A0D2A7008F2027108031CF30352
:10041800F30201300310F10CF00CFF3E031D0E2A0D
:100428000130F502031D192A1A2AFD297608031935
:100438001E2A1F2A242AF209F309F20A0319F30AC9
:100448007308F1007208F00008006430F000003012
:10045800F1007A08F3007908F2000A128A110B21D8
:100468000A128A117008FB007B0883120313D2005A
:100478006430F0000030F1007A08F3007908F200E7
:100488000A128A11D0210A128A117008FB007B080F
:1004980083120313D3000A30F0000030F100530830
:1004A800FB00FC017B08F2007C08F3000A128A11A9
:1004B8000B210A128A117008FD007D0883120313AC
:1004C800D4000A30F0000030F1007A08F30079080F
:1004D800F2000A128A11D0210A128A117008FB0050
:1004E8007B0883120313D500080001308316031715
:1004F80088008901013083160313850083120313D2
:10050800850183160313860183120313860183165C
:100518000313181218158316031787151930831635
:10052800031399009A018312031398178316031370
:10053800181398168312031318168B170B178316A4
:1005480003138C160C17831203130C139F14080043
:1005580031342E3420344C346534653472342034CC
:1005680050346F34743465346E34633469346F34A2
:100578006D346534743472346F340D3432342E343F
:10058800203445346E34763469346134723420341E
:10059800413453344334493449340D340234053436
:1005A80006340D3448340D3483120313DF01E0019F
:1005B800F12A831203130C1EE22AE32AF12A5F08A8
:1005C8005D07DE005E08840083130008990001308F
:1005D800DF070318E00A0030E0076008803ADE0011
:1005E8005C08803A5E02031DFB2A5B085F02031C5D
:1005F800FE2AFF2ADD2A08008C1E032B042B0E2B53
:100608001A08D7005708D600560886000130CE00D1
:100618000030CF000C1F112B122B212B1E08D700E6
:10062800D8015708F9005808FA000A128A11292235
:100638000A128A11831203130C135A088A00590EDE
:100648008300FE0E7E0E09007E088A007F08820065
:100658000A128A1128230A128A118000840A0408BF
:0E0668007D0603190034FF0A0319FE0A2C2B2D
:08400000FF3FFF3FFF3FFF3FC0
:04400E00D420FF3F7C
:00000001FF
